:020000040800F2
:10000000701A00204502000801390008CF360008A8
:1000100000000000000000000000000000000000E0
:100020000000000000000000000000008F3C0008FD
:1000300000000000000000008D3C0008913C00081A
:10004000570200085702000857020008570200082C
:10005000570200085702000857020008570200081C
:1000600057020008491C0008570200085702000800
:1000700057020008570200085702000857020008FC
:1000800057020008570200085702000857020008EC
:1000900057020008570200085702000857020008DC
:1000A00057020008570200085702000857020008CC
:1000B00057020008570200085702000811570008AD
:1000C00000F002F800F0AFF80CA030C8083824188F
:1000D0002D18A246671EAB4654465D46AC4201D180
:1000E00000F0A1F87E460F3E0FCCB6460126334203
:1000F00000D0FB1AA246AB463343184768590000AC
:10010000885900000023002400250026103A01D35E
:1001100078C1FBD8520700D330C100D50B607047BF
:1001200010B56E2902D100F0AFFA10BD702902D1CE
:1001300000F0F1FB10BD662902D105F0EDFB10BD0A
:10014000652902D105F0E8FB10BD672902D105F051
:10015000E3FB10BD612902D105F0E6FB10BD036889
:100160001B0A01D380231943692902D100F056FAF2
:1001700010BD642902D100F051FA10BD752902D1D9
:1001800000F04CFA10BD6F2902D100F06FFB10BDDA
:10019000782902D100F0ACFB10BDE92902D100F0B2
:1001A0000BFB10BDE42902D100F006FB10BDF529C0
:1001B00002D100F001FB10BDEF2902D100F062FB7B
:1001C00010BDF82902D100F0A1FB10BD0368DB09C6
:1001D00001D380231943632902D101F086F810BDB1
:1001E000732902D101F089F810BDE32902D101F091
:1001F00093F810BDF32902D101F096F810BD00204C
:1002000010BD1FB501F0F0F804000020002105F03A
:100210006DFB401C60600020002105F051FBE06098
:100220001FBD10B510BD01F0B7F81146FFF7E9FF8B
:1002300005F00EFB01F04CFC03B4FFF7F2FF03BC2A
:1002400001F096FC0748804707480047FEE7FEE7B5
:10025000FEE7FEE7FEE7FEE704480549054A064BD0
:1002600070470000173D0008C1000008701400200E
:10027000701A00207016002070160020FEB505468A
:1002800010460C46184373D0AE468C460020AD1A7B
:1002900001469C4167D36646002701243D46B61AB5
:1002A0009D4102D313463A462124654676462F04E3
:1002B000360C3E432D0CB61A9D4104D3150C1B047D
:1002C0002B4312041034654676462F06360A3E4309
:1002D0002D0AB61A9D4104D3150E1B022B431202A0
:1002E0000834654676462F0736093E432D09B61A6F
:1002F0009D4104D3150F1B012B431201241D65469C
:100300007646AF07B6083E43AD08B61A9D4104D302
:10031000950F9B002B439200A41C65467646EF0781
:1003200076083E436D08B61A9D411AD392185B4178
:10033000641C16E00018764665464941B71A9D418F
:100340000191009009D36046B11A98418E468446C7
:10035000009801990025401C6941DD0752082A4395
:100360005B08641EE6D57246634603B0F0BDFFE746
:1003700000200146C046C0462A462346F5E7000055
:100380007CB51D4616460C00009001D00019401E99
:10039000084B7B442A4669460190304600F08DF9AF
:1003A000002C054603D06946002000F099F9284644
:1003B0007CBD00005503000001E004C0091F0429B2
:1003C000FBD28B0701D50280801CC90700D00270C8
:1003D000704700290BD0C30702D00270401C491E91
:1003E000022904D3830702D50280801C891EE3E71B
:1003F0000022EEE70022DFE7002203098B422CD324
:10040000030A8B4211D300239C464EE003460B4364
:100410003CD4002243088B4231D303098B421CD3C6
:10042000030A8B4201D394463FE0C3098B4201D3B8
:10043000CB01C01A524183098B4201D38B01C01AF0
:10044000524143098B4201D34B01C01A5241030967
:100450008B4201D30B01C01A5241C3088B4201D316
:10046000CB00C01A524183088B4201D38B00C01AC3
:10047000524143088B4201D34B00C01A5241411AEA
:1004800000D201465241104670475DE0CA0F00D0CD
:100490004942031000D34042534000229C460309C6
:1004A0008B422DD3030A8B4212D3FC22890112BA4C
:1004B000030A8B420CD3890192118B4208D3890124
:1004C00092118B4204D389013AD0921100E089093C
:1004D000C3098B4201D3CB01C01A524183098B421D
:1004E00001D38B01C01A524143098B4201D34B0106
:1004F000C01A524103098B4201D30B01C01A524169
:10050000C3088B4201D3CB00C01A524183088B42EF
:1005100001D38B00C01A5241D9D243088B4201D378
:100520004B00C01A5241411A00D201466346524163
:100530005B10104601D34042002B00D54942704762
:1005400063465B1000D3404201B50020C046C04660
:1005500002BD70477047704770B5044685690068F2
:10056000C10601D5302600E02026C00707D070BDA7
:1005700062683046A1689047206A401C20626D1E68
:10058000F6D570BD70B5044685690078C00707D1FF
:1005900070BD6268A16820209047206A401C2062DC
:1005A0006D1EF6D570BD09684A0501D540B2704789
:1005B000C905FCD500B2704709684A0501D5C0B22B
:1005C0007047C905FCD580B2704770B50C4605462A
:1005D000012A05D02878800600D5EA69002302E0C8
:1005E000012305E05B1C934202D2E05C0028F9D1B4
:1005F000A869E618C01AA861286AC01828622846A7
:10060000FFF7AAFF04E06A682078A968641C904795
:10061000B442F8D32846FFF7B5FF70BDF7B5002503
:1006200075291068009914A611D0FFF7BCFF0028A7
:1006300002DA404211A608E0009909688A0701D54C
:100640000FA602E0490704D50EA6012501E0FFF739
:10065000B3FF009F0024243704E000F089FE30310E
:100660003955641C0028F8D12B46324621460098A3
:1006700000F05FFAFEBD0000000000002D00000049
:100680002B0000002000000011680268006A53057A
:1006900001D5087009E0D30501D5088005E01306EF
:1006A00002D5C21705C100E00860012070470000B4
:1006B00001694A1C02610878704700B58FB0029149
:1006C0000021059105490193794403911146049055
:1006D000684600F02DF90FB000BD0000E5FFFFFFF8
:1006E0000A681070521C0A6070470CC908399A4297
:1006F00002D2531C0B60107070470000F7B504461F
:10070000154686B02B487844002703C83E46009023
:10071000019111E007986A467100415A02A800F061
:1007200007FE411C07D02178890603D5E2693918F4
:1007300091420ED83F18761C2078800602D5E069D9
:10074000B84206DDAE42E5DB07987100405A00284A
:10075000E0D1A069C01BA0612046FFF7FDFE15484F
:1007600078445A3803C800900020019116E04100F7
:100770006A460798415A02A800F0DAFD0590401C2D
:100780000AD0002505E0626802A8A168405D904794
:100790006D1C05988542F6D30498401CB042049025
:1007A000E5DB206AC01920622046FFF7EBFE09B0A6
:1007B000F0BD00005E520000F7B5D21D0025D20842
:1007C00015A6D200F52905CA11D0002A05DA0021A4
:1007D0004042914111A60A4608E0009909688B073A
:1007E00001D50FA602E0490701D50EA60125114645
:1007F000009F0024243704E000F05EF930323A55BF
:10080000641C02460A43F7D12B4632462146009823
:1008100000F08FF9FEBD0000000000002D00000078
:100820002B0000002000000070B504460021243495
:1008300008E05507D2086D0F303565545D072A432F
:10084000DB08491C15461D43F3D10468002310A2A0
:10085000250708D5A40601D4002904D0C4690123C2
:100860000CA2641EC46100F064F970BD10B50446AA
:1008700021461068FFF7A0FE002302462046FFF73E
:10088000D3FF10BDD21DD108C9000CC9CCE70000B0
:100890000000000030000000F8B50F46018809058F
:1008A00002D5224C7C4402E0204C7C440E340546A8
:1008B0000021243508E016071209360FA65D6E5494
:1008C0001E0732431B09491C16461E43F3D122461C
:1008D00004780023240705D5702F06D0002901D005
:1008E0000223113200F025F9F8BD01231032F9E797
:1008F00070B504460D4621461068FFF75DFE0023E3
:10090000024629462046FFF7C7FF70BDD21DD30817
:10091000DB000CCBC0E730B403682024126823430B
:1009200003600823C36130BC0023B5E7C850000052
:10093000F3B50446002081B020622046E168884774
:10094000002872D0252802D06268A168ABE0594F18
:1009500000267F442046E16888472028054608DBBA
:10096000312D06D2781920380078002801D00643AE
:10097000F0E7B00701D5042086430020E061074678
:10098000A0612A2D0AD0284604F05AFF002827D05B
:10099000B8000019303D0090856119E00298BA0056
:1009A000121902C8916102902046E1688847012F20
:1009B000054617D1E06900281FDA202086431CE095
:1009C00000980A21806948430099401930388861AD
:1009D0002046E1688847054604F032FF0028EFD141
:1009E000012F0AD02E2D08D12046E1688847054600
:1009F000202006437F1C022FC3DBA069002803DAF6
:100A00004042A06101200643F00701D01020864338
:100A10006C2D0BD0682D09D04C2D3CD06A2D38D0D0
:100A2000742D38D07A2D36D016E040E0E1682F469C
:100A300020468847B842054609D16C2F29D00120AD
:100A40008002E168064320468847054604E06C2F93
:100A50001DD0FF2001300643002D28D02846413804
:100A6000192803D80120C0020643203520462660FD
:100A70002946029A1646FFF753FB002810D001289A
:100A80000BD0F61DF008C0000830029055E740205A
:100A9000E1E78020D5E70020D3E7361D02964CE73A
:100AA00062682846A1689047206A401C44E7206A93
:100AB000FEBD0000425000000B4670B5024689079B
:100AC0008008084319469D08141AA94125090807FA
:100AD000054308092C194841250A01060D43010A5E
:100AE0002C194141200C0D0428430D0C00194D41D7
:100AF000002140194D41C00869070843E908840FE7
:100B00008D002543840024184D4124196D41121B8A
:100B1000AB4107E00925ED432C1152196341002434
:100B2000401C61411C460A250026551BB441F1D2E8
:100B300070BDFFB504460D4681B024300090216899
:100B4000880604D51022E0699143216000E001206D
:100B5000A84201DD471B00E000270498A1697A192B
:100B60001018081AA0612078C00602D42046FFF7AA
:100B7000F3FC002608E003986268A168805D904756
:100B8000206A401C761C206204988642F3DB2078A1
:100B9000C0060AD52046FFF7DFFC06E06268A168C0
:100BA00030209047206A401C206238467F1E002873
:100BB000F4DC07E000986268A168405D9047206A15
:100BC000401C206228466D1E0028F3DC2046FFF7FB
:100BD000D9FC2078000602D5022005B0F0BD012026
:100BE000FBE700007047FFB50C461E468FB003CAF6
:100BF000089009914F007D0D00D16D1E002108461F
:100C00000020C0460321099A89050840002A03DA1A
:100C10008200801840080840800D01280A9002DDFB
:100C20000020C0430A90089807430DD0F048F149CE
:100C3000281848430714189800281DD07542291E0B
:100C40001DDD0A9842421BE01898012802D00020BE
:100C5000302104E00020F24305E02154401CB04262
:100C6000FBDB30460022189B002121540F998B603A
:100C70000A60486013B0F0BDBD1B6D1CDFE70A9A27
:100C8000002900DA69420BA800F0F6FB0BAB07CB9A
:100C900003AB07C30899099800F05AFC6B4607C3D9
:100CA0000146D5480918002D00910BDDD249039863
:100CB0000A9A49424018002303A90390684600F0AD
:100CC000B7FE08E003990A9A0023081803A90390C5
:100CD000684600F057FE6B4607C30004000C03D0C3
:100CE0000020C043410800E01046189A002A03D0B3
:100CF0000022009215461EE0751E05D4FFF7DCFEAB
:100D0000303262556D1EF9D501220843079602D094
:100D100000227F1C04E02078302801D100227F1EB1
:100D2000002A069787D01EE0112D07DAFFF7C4FED0
:100D3000303262556D1C02460A43F5D1084303D098
:100D40000098002819D00EE00021681E05E0235C01
:100D5000625C63542254401E491C8142F7DBA81B8D
:100D6000401E07950690079A18990020A0540F98E6
:100D7000079B069A81600CC07CE711260020189022
:100D800059E7D21DF0B50D460446D10893B0C9000D
:100D900003C90C900D9104F01BFD02460D98C00F85
:100DA00001D02D2007E02068810701D52B2002E02B
:100DB0004007C00F4001032A0F9001D0072A05DB2E
:100DC00003462946204600F013FB0EE120788006FA
:100DD00001D5E76900E006272846652D04D066287E
:100DE00014D0672D69D12DE00020112F009001DB78
:100DF000112300E07B1C0CAA03A910A8FFF7F3FE47
:100E00001199002610987D1C0E9142E001203B466E
:100E10000CAAC0070B900120009003A910A8FFF7AF
:100E2000E2FE119D12981099002600280E9501D11E
:100E3000781C0D18781B02D446427D1C761EE81BD8
:100E400000903AE0012F00DA01270020112F0090D6
:100E500001DD112300E03B460CAA03A910A8FFF70F
:100E6000C2FE11993D46109800260E91217809077F
:100E70000BD40E99A94200DA0D4603A9012D04DD19
:100E80004A19203AD27F302A06D0B84201DA011D31
:100E900004DA012100910FE06D1EEFE7002802DC6B
:100EA00086192D1A03E0411CA94200DD0D46801B66
:100EB000401C00900120C0070B902078000705D44B
:100EC0000098A84202DB0020C04300906946002041
:100ED000C8720B98012102AF0337C907884225D099
:100EE000022010902B2011900B9800280BDA404222
:100EF0000B902D20119006E00B9800F039FA30315C
:100F00007F1E0B9039701099481E00291090F3DC59
:100F10000B980028F0D111987F1E387020880005AA
:100F200001D5452000E065207F1E387001A8C01B58
:100F3000C01D0B900F98002800D001204119009887
:100F4000C01709180B980818A169081A401EA0615B
:100F50002078C00602D42046FFF7FEFA0F9800283A
:100F600005D06268A1689047206A401C2062207802
:100F7000C00625D52046FFF7EFFA21E0002E07DB5B
:100F80000E98B04204DD03A86268805DA16802E0AB
:100F90006268A16830209047206A761C401C20625D
:100FA0000098401E002800900AD100F01DFAC06889
:100FB00062680168405CA1689047206A401C20621A
:100FC00028466D1E0028D9DC07E062683878A168E1
:100FD0007F1C9047206A401C20620B99481E002904
:100FE0000B90F2DC2046FFF7CDFA032042E600002A
:100FF00001FCFFFF104D0000E1DFFFFFD21DF0B547
:1010000004460D46D0088DB0C000466807683146DA
:10101000384604F0DDFB0246F00F01D02D2307E037
:101020002068810701D52B2302E04007C00F430150
:101030006846002B037001D0012000E00020032A45
:101040000A9001D0072A04DB2946204600F0D0F997
:101050002DE12078800601D40D2500E0E5697000BF
:10106000400D0D2D01904BDA300D00210B900846FC
:101070000020C046032189050840002E05DA8200C1
:101080008018C20F1018401008408015012801DD9B
:101090000020C043A9000023182906D39C460A4615
:1010A0000123183A1B07D34003E001221205CA406E
:1010B00094460C31202902D33A46203900E03246CA
:1010C0008A40002802DD002A06D119E0002817D145
:1010D0000121C9078A4213D3194663467F185E412E
:1010E000002806D10120C007824202D1084687436A
:1010F0009E430B98310D814202D00198401C019013
:101100002088000502D57149794402E06F4979448D
:1011100019396B460A9830221A540A980A7C401CE6
:101120001A54401C0A900198002801DC302000E08D
:1011300031201872019A0120002A02D0644BD21883
:1011400004E072003A4302D0614A521C0192002D21
:1011500002DC2278120703D56A462E205072022044
:101160000022864694460CE032033601120F6D1EB3
:101170008B5C02AA13546246521C401C9446052AFA
:1011800001DA002DF0DC002202AE08E03B0F3F0147
:10119000CB5C521C6D1E3354401C082A01DA002D12
:1011A000F4DC23689A0601D511E0401E704504DD89
:1011B0003218203AD27F302AF7D0002807DD3218C3
:1011C000203AD27F2E2A02D11A0700D4401E002DC9
:1011D00003DD3E223254401C6D1E497C315401997E
:1011E000401C002906DA2D21471C31540198404249
:1011F000019003E02B21471C315401987D21C90047
:10120000884206DBFFF702F93030F0557F1C019170
:1012100001E0642808DB01986421FFF7F7F830301B
:10122000F0557F1C019101E00A2806DB01980A2194
:10123000FFF7ECF83030F0557F1C01980A21FFF7DA
:10124000E5F83031F1550A98A1697F1C7A19101818
:10125000081AA0612078C00602D42046FFF77CF966
:10126000216A6E460A980818206204E062683078A5
:10127000A168761C90470A98401E0A90401CF5D140
:101280002078C00602D52046FFF766F902AE09E0D5
:101290003078761C3E280DD06268A1689047206A9D
:1012A000401C20627F1EF3D22046FFF76BF90DB081
:1012B0000320F0BD206A4019206203E06268A16843
:1012C000302090476D1EEDD3F8E70000B0480000D5
:1012D00001FCFFFF10B54369002B02D0C046C04699
:1012E00001E0FFF772F9012010BD127801462431A8
:1012F0000A7000224A700122ECE711680022D243F2
:10130000E8E710B54369002B02D0C046C04601E0B3
:10131000FFF7F4F9012010BD1288014624318284C0
:101320000022C2840122ECE711680022D243E8E7E0
:1013300070B516460C46054600F04EF80368FF20CF
:101340000230C05C012807D0FF2C0ED8185D0028A1
:101350000BD001202C7070BDFF333246214608337C
:101360001868C3182846984770BD0020C04370BD58
:1013700001468008081A02091018020A1018020C07
:101380001018C008820012185200891A01E0401C8F
:101390000A390A29FBD27047754600F0A1FBAE4618
:1013A000050069465346C008C000854618B020B500
:1013B000FEF752FF60BC00274908B6460026C0C5AC
:1013C000C0C5C0C5C0C5C0C5C0C5C0C5C0C5403DFD
:1013D00049008D467047000010B500F005F8001D6B
:1013E00010BD00BF094500000048704730140020C0
:1013F000F8B51F46044601230068DB0203260146B8
:101400001840072A05DB002801D017A506E017A51C
:1014100004E0002801D016A500E016A510208143A5
:101420002160A069C01E002FA06101D0401EA061F4
:101430002046FFF791F8002F09D038466268A1686E
:101440009047206A401C2062C01C206206E0206A8F
:10145000FAE762682878A1686D1C9047761EF8D27A
:101460002046FFF78FF8F8BD4E414E006E616E00CA
:10147000494E4600696E6600F7B516468AB0334895
:1014800078446C4603467C33C06F5A689B680DC431
:101490002E487844763003AC0DC80DC43720C00107
:1014A000081837211B30FEF7B1FF05460C46803D7A
:1014B0001B3C02D56442012000E000200027099077
:1014C00010E0E0070CD00C202049784379443246E4
:1014D0004C3941186846012300F054FA6B4607C3A3
:1014E00064107F1C002CECD1184F7F442E3F16E077
:1014F000E80712D02001C0190EC806910893079280
:101500000068F04201D1981908903246012306A9DB
:1015100003A800F037FA03AB07C36D10641C002D5D
:10152000E6D10998002806D032466946012303A86F
:1015300000F07EFA05E001233246694603A800F078
:1015400021FA0A9B07C30DB0F0BD00004C45000016
:10155000034640000A4610B5400D0BD00121C907D3
:101560000F24A40200191C0364082143540D2143D5
:10157000D20207E000210120F2E7D40F4900214305
:101580005200401E0029F8DADB0FDB07184310BDBC
:10159000FFB50D46144685B04868516804F0F2F86E
:1015A00000910190A868A16804F0ECF80291039002
:1015B000A868616804F0E6F8029A12188242029262
:1015C00001D2012000E00020019A0B18D218002857
:1015D000019202D08A4202D903E08A4201D201205C
:1015E00000E000200099081800906868A16804F0E5
:1015F000C9F8029A12188242029201D2012000E038
:101600000020019A0B18D2180028019202D08A42B9
:1016100002D903E08A4201D2012000E000200099B3
:1016200008180090286821684000490040084908CF
:101630004018FA49471814E001994000C90F0843BF
:101640000090019802994000C90F08430190029848
:1016500003994000C90F08430290039840007F1E81
:10166000039000980028E7DA0898002801D0EC4E93
:1016700000E00026B74201DA012000E00020002847
:1016800004902AD0F71BF806C00E15D0029B20212B
:10169000091A039A8B401A430392029A019BC24093
:1016A0008B401A430292019A009BC2408B400099E2
:1016B0001A430192C14000917B110DD06F46032067
:1016C000C11A03D500218200B95003E08A008100CD
:1016D000BA587A50401EF3D537460398029900282D
:1016E00000D00120014308980291002808460CD040
:1016F000002800D001200199019A490508430121E1
:10170000D20AC902D202019200E001210E9B0122FD
:10171000D207012B02D0002B03D013E0002807D101
:1017200020E0904204D890420CD1019B0B4209D09A
:10173000019B5918019105D10099491C009101D1D3
:101740007F1C009200280DD0102108460020C046C2
:101750000498002806D00F98002803D008210846D6
:101760000020C04628682168019B009A4840C10FAC
:101770000598C90739430EC009B0F0BDFFB587B061
:10178000099A08980899536892684068896896464B
:101790000022039317469446089A12685300099A48
:1017A0005B081268520052089A1A9E4BD4180A9A83
:1017B000002A01D0352200E04022069200220123B7
:1017C00015460492DB07059324E0002D05D17546EC
:1017D0000346039E4D1BB34109D375466646039BE2
:1017E000491B049D9841059B7519AC465F416346B2
:1017F0003B4308D0059B049EDD0776082E435B081B
:101800000496059301E0521E641EC50FED074918AA
:101810004041521C069B9A42D7DB002D04D17546ED
:10182000039A6B1A824101D203200CE0039A0B4603
:101830006B404240134303D0014303D0012002E038
:10184000022000E0002061460191002100970291F2
:101850000A99002905D0614640020143704B01916D
:1018600002E08007002302909C4201DA012000E0A0
:10187000002007003AD01A1BD006C00E15D0029DDA
:101880002021019C091AC5408C402543029C8C40B4
:1018900000D001242543019C0295009DC4408D4049
:1018A00000992C430194C140009154111DD06D4604
:1018B0000221002202290CD10320001B07E000288E
:1018C00004DB8600AE59002E00D00122401C032804
:1018D000F5DB081B02D588002A5004E08000285858
:1018E00010438A00A850491EE3D51C460A980028D8
:1018F00002980CD0002800D001200199019A4905D6
:1019000008430121D20AC902D202019200E001215A
:10191000109B0122D207012B02D0002B03D013E031
:10192000002807D11FE0904204D890420CD1019BBF
:101930000B4209D0019B5918019105D10099491C0E
:10194000009101D1641C009200280CD0102108469F
:101950000020C046002F06D01198002803D008218F
:1019600008460020C04608980999019A009B006823
:1019700009684840C10F0798C907214382600AC01F
:101980000BB0F0BD00B585B0019300920A46014648
:10199000002302A8FFF7FCFD02A807C805B000BDA0
:1019A000FFB50A461F4685B00799019301230091B0
:1019B000014602A8FFF7ECFD02990398049ECA0FA6
:1019C0004900D20700920F22490892028C1A002186
:1019D000002800DB0C46450013486D08844214D3F0
:1019E000079A002A04DA441E0026104DF64302E04E
:1019F00004460D460E46102108460020C046002F22
:101A000003D0042108460020C0462005E90A084307
:101A1000009908436905F20A1143ADE602C0FFFFD1
:101A2000013C0000FF3F0000FF070000FFFFFF7FB9
:101A300000B585B0019300920A460146002302A832
:101A4000FFF79CFE02A807C8A8E7FFB50A461F4695
:101A500085B00799019301230091014602A8FFF781
:101A60008DFE02990398049ECA0F4900D207009286
:101A70000F22490892028C1A0021002800DB0C4634
:101A8000450011486D08844214D3079A002A04DAED
:101A9000441E00260D4DF64302E004460D460E4658
:101AA000102108460020C046002F03D0042108461C
:101AB0000020C0462005E90A08430099084369054B
:101AC000F20A114358E60000FF070000FFFFFF7F06
:101AD00010B50446C046C0462046FEF7ADFB10BD1B
:101AE0000048704710140020024670B50A43920760
:101AF0002AD11E4DEE0104C808C9541B944334403A
:101B000017D0D0B2D9B2401A2106014310D190B2F9
:101B100099B2401A210401430AD110021902000AA5
:101B2000090A401A2102014302D1100E190E401A6F
:101B300070BD9A42DFD010BA19BA884201D901208B
:101B400070BD0020C04370BD02780B78401C491C5A
:101B5000002A09D09A4207D102780B78401C491C10
:101B6000002A01D09A42EFD0D01A70BD01010101C4
:101B700001491820ABBEFEE726000200704770B591
:101B80008C180578401C6B075B0F01D10378401C53
:101B90002A1106D10278401C03E00678401C0E7022
:101BA000491C5B1EF9D12B0705D40023521E0DD40E
:101BB0000B70491CFAE70378401CCB1A921C03E017
:101BC0001D780D70491C5B1C521EF9D5A142D8D35B
:101BD000002070BD002070470020704710B5002223
:101BE0000449054802F030FB0449034802F022FB97
:101BF000002010BD140B002050020020140700200C
:101C000010B50146034802F015FB024802F0EBFA5A
:101C1000002010BD500200200A4610B50849896B0B
:101C2000FF31FF3102314969002901D0012010BD87
:101C30000146044802F008FB024802F064FB10BDB4
:101C4000D00400205002002010B5024800F0B2F984
:101C500010BD0000C401002010B50446006805490D
:101C600040181421FEF7C8FB800020640248E0639E
:101C700010BD0000F8FFFDBF0000024072B6FEE795
:101C8000F8B50025044620340095227D012A3BD07A
:101C90000122227503689E68760776D43F4F4E680E
:101CA000BE4254D09E6A0F78BA4016439E6201230A
:101CB000C26A1B079A421FD0012A1DD0022A1BD0DC
:101CC000032A19D0042A17D0052A15D0062A13D0C2
:101CD000072A11D002688B6856697607760FB342DF
:101CE0000AD05369DB08DB005361006842690B7A54
:101CF0005B075B0F1A4342610868102806D0112861
:101D000004D0122802D045E00220F8BD244A93688E
:101D1000102809D011280AD001200006034393603F
:101D20000868102806D035E00120C005F6E701203C
:101D30008005F3E71C481B490068FEF75DFB0A219C
:101D4000484300E0401E00900028FBD122E0986A42
:101D50000E78B240904398620868102803D011288A
:101D600001D0122816D10E498A68102807D01128F0
:101D700008D00120000682438A600BE005E00120C4
:101D8000C005F8E701208005F5E7816B20221143AB
:101D900081630125002020752846F8BD0110000050
:101DA0000027014040420F000C000020F8B500263B
:101DB0000446002805D0A06B25462035002802D017
:101DC00007E00120F8BD0020E0632875204600F000
:101DD000A9F8A06B1022C006002870DB206881687B
:101DE00049076CD4A16B1301994302231943A163E2
:101DF00081688907890F012905D10168C9070FD1B9
:101E0000C16809040CD4C16818239943A368194315
:101E1000C16020680169636889008908194301610C
:101E20002068C1683D4B1940C160207E617E8003FF
:101E3000C9030843A17E4B031843A36A012B02D0B8
:101E400001231B0300E000231843E36818432369C0
:101E5000022B09D0002318432B79E57E5B00184341
:101E60000123012D02D00AE00423F4E7002927D042
:101E7000A16B20252943A163E16B1943E163E1696B
:101E80000D46FF3DC23D02D0256A29430843216823
:101E9000CD680543CD600125E16A2D07A94213D025
:101EA000012911D002290FD003290DD004290BD00C
:101EB000052909D0062907D0072905D010E028E018
:101EC000012109040843DAE721684D69ED08ED00B6
:101ED0004D6121684D69A78D7F077F0F3D434D619F
:101EE0002168C9680E4D2940814207D10020E06376
:101EF000A06B80088000401CA06308E0A06B02215A
:101F000088431043A063E06B1843E063012630462A
:101F1000F8BDA06B1043A063F8E700001902FEFFB4
:101F2000E7FF3F8370B586B0054614216846FEF78B
:101F300061FA1C492868884231D11B498A694015D9
:101F400002438A618A69024005924A69000202439B
:101F50004A6149690026014005910A20009003204A
:101F60000190092069460296C00600F0ADF80F48BE
:101F70000F4C41C48020266060604000A06080005B
:101F80002661E0600320000360610948083C00F01E
:101F90005FF8002801D0FFF771FE2C63656206B080
:101FA00070BD000000240140001002400800024003
:101FB000C4010020F0B4C16B0D6801680C680422F4
:101FC000066C1346B3402B420DD063070BD50B684C
:101FD0009B0602D40B6893430B60016C8A40C16B73
:101FE0004A60C16A19E00227B74002462F40012328
:101FF0002032002F15D0A70713D50C68A40604D4EF
:102000000C680A25AC430C605370036C02219940A4
:10201000C36B596000211170816A002916D0F0BC91
:1020200008470827B7402F4210D024070ED50C6868
:102030000E25AC430C60046C1946A140C46B616072
:102040008363537000211170016BE6E7F0BC7047A9
:1020500070B5040021D00221204620300546417091
:10206000226811680E48A368014060682669184319
:10207000E3683343184363691843A3691843E3696A
:102080001843084310602046FFF7E6FD0021A163D6
:10209000012068702970084670BD012070BD0000E5
:1020A0000FC0FFFF70B5044600F0E8F80546601C5D
:1020B00002D004480078241800F0E0F8401BA04249
:1020C000FAD370BD00000020F8B5002303240125D9
:1020D000BFE02E469E40B44632407CD00E79B60713
:1020E000B60F012E01D0022E17D186682746B646BC
:1020F0005E00B74000967646BE43B646CF68009E67
:10210000B74076463743876046686746BE430F79D7
:10211000FF06FF0F9F40374347600E79F643B6072F
:102120000ED0C6682746B4465E00B646B74066463F
:10213000BE43B4468F687646B74066463743C760AD
:102140000E79B607B60F022E14D1DE08B600361887
:102150000096366A5F07B446FE0E0F27B646B740B4
:102160006646BE43B4460F697646B7406646374377
:10217000009E376206682746B4465E00B646B74002
:102180006646BE430F79B446BF07BF0F7646B740D9
:102190006646374307604E68B603B60F58D0304FD7
:1021A000BE692E43BE61BE699F08F607F60F2D4E2D
:1021B000BF00BE190096B6680F27B4469E07360FBB
:1021C000B646B7406646BE430927FF06B446B84246
:1021D00002D1002715E03BE0234FB84201D101278F
:1021E0000FE0224FB84201D102270AE0204FB84247
:1021F00001D1032705E01F4FB84201D1042700E0B9
:1022000005277646B74066463743009EB7601A4EAC
:10221000B6684F689643FF0200D51643164FBE605E
:10222000FE684F689643BF0200D51643124FFE600A
:102230007E684F689643BF0300D516430E4F7E60FD
:102240003E684F689643FF0300D516430A4A16605E
:102250005B1C0A681646DE4000D03AE7F8BD000075
:10226000001002400000014000040048000800483F
:10227000000C00480010004800040140014880683C
:102280007047000000000020024881680278891829
:10229000816070470000002010B5064801681022D8
:1022A00011430160032000F007F800F027F8002038
:1022B00010BD00000020024070B504460D4D7D2089
:1022C0002978C000FEF798F801460B480068FEF731
:1022D00093F801F04BF8002809D1042C07D2002212
:1022E0002146401E00F02AF800206C6070BD0120DD
:1022F00070BD0000000000200C00002008B5084858
:102300008169012211438161816911400091C26993
:1023100001040A43C261C0690840009008BD000082
:1023200000100240002805DBC106C90E01208840CC
:10233000014908607047000000E100E010B503F0BB
:102340005DFA10BD10B50523DB01C3180168012239
:102350000B241A65A4010023001903724031888AF6
:1023600010438882888A022210438882184610BD52
:10237000704710B50C0606D54907490F282461435C
:102380000818103004E0282461430818FF30513049
:1023900099B2002A06D0012202730181190C4181F1
:1023A000002010BD00220273C180F9E728224A43B1
:1023B00010B512180523DB01C018526A806D02F0B7
:1023C0005BF910BD28224A43121810B50523FF32CD
:1023D000DB010132C018526E806D02F0B0F910BD01
:1023E00070B5CD094907490F0A46282359430918F2
:1023F00001230024002D02D04B74103102E0FF3184
:1024000051314C700A700522D20185182A7C012AAC
:1024100006D02B74006802F0FFFD2C74002070BD04
:10242000022070BD70B50A070379120F9A4201D9D4
:10243000012070BDCD094907490F0A462823594399
:10244000091801230024002D02D04B74103102E042
:10245000FF3151314C708C700A700522D201851801
:102460002A7C012A06D02B74006802F069FE2C74C5
:10247000002070BD022070BDF8B503680D781C46C1
:10248000AC46EE00403357048D691B8A002F29DAD1
:102490001B192D4C34191B5B9C05A40DA54203D3BD
:1024A0002B1B8B6102D00DE000238B616346056816
:1024B0009E00AB5B254F3B4001277F037B40244FB1
:1024C0003B43AB53520609D50A78036895005A5B23
:1024D000204E32401E4E403632435A53002C30D0EC
:1024E0000A8929E01B19184C241D34191B5B9C0513
:1024F000A40DA54203D32B1B8B6102D00DE000235A
:102500008B61634605689E00AB5B104F3B40012723
:102510007F037B400E4F3B43AB53520609D40A78EE
:1025200005689300EA5A0B4E3240094E403632435A
:10253000EA52002C05D04A8949690068234603F015
:10254000F2F82046F8BD0000020400008FBF000032
:10255000808000008F8F0000FEB50C460768019751
:10256000054620780090C300A069164651068446AF
:1025700022464037002020323F8A0029019974DA30
:102580007F18C7495918795A8905890D8C4514D97E
:1025900067467F1AA76111D073040AD5009B2F6884
:1025A0009E00BB5BBC46BF4F3B40BF4F3B436746B3
:1025B000BB531379012B4BD061E1A06161780029F5
:1025C00002D0012911D018E029685022525A51181E
:1025D0005A18B34951180A889205920D0A800A8840
:1025E0000123DB031A430A8007E029685022525A6C
:1025F00051185A18AA495118088062782968002A87
:1026000002D0012A13D01CE05020405A40182178F3
:10261000C9000918A248001D081801888905890DFC
:10262000018001880122D2031143018009E0502278
:10263000525A51182278D20052189949091D51183E
:10264000088021782846FFF7B1FE700475D416E1A2
:1026500063695B186361E3695B18E3612669236A58
:10266000B34203D33146581A04E041E0002B107105
:1026700001D0194620626078002802D001282AD0B3
:1026800033E028685022125A10182278D20012180B
:102690008348101802889205920D0280002908D004
:1026A0003E290CD84A08CB0700D0521C038892025E
:1026B0000EE002880123DB031A43028015E04A0979
:1026C000CB0600D1521E038892020126F603324344
:1026D0001343038009E028685022125A1018227808
:1026E000D20012186E48101801808BB22289C2E005
:1026F0007F186B49091D5918795A8905890D8C4530
:1027000014D367467F1AA76111D073040AD4009BC3
:102710002F689E00BB5BBC46624F3B40624F3B4311
:102720006746BB531379012B55D0A8E0A0616178AF
:10273000002903D0012912D019E042E02968502273
:10274000525A51185A18564951180A889205920D32
:102750000A800A880123DB031A430A8007E02968FC
:102760005022525A51185A184D495118088062780F
:102770002968002A02D0012A13D01CE05020405AB8
:1027800040182178C90009184548001D081801881B
:102790008905890D018001880122D203114301803E
:1027A00009E05022525A51182278D20052183C495E
:1027B000091D5118088021782846FFF7F7FD70049D
:1027C0005DD4207829688200885A364B1840364BF1
:1027D0001843885253E063695B186361E3695B18CF
:1027E000E3612669236AB34203D33146581A206253
:1027F00004E0002B01D0194620621071627828682D
:10280000002A02D0012A2AD033E05022125A10188E
:102810002278D20012182248001D10180288920552
:10282000920D0280002908D03E290CD84A08CB0717
:1028300000D0521C038892020EE002880123DB03C1
:102840001A43028015E04A09CB0600D1521E0388C4
:1028500092020126F60332431343038009E050221B
:10286000125A10182278D20012180D48001D1018A4
:10287000018062898BB26169286802F070FF20785C
:1028800029688200885A074B30331840102358407B
:1028900020235840054B184388520020FEBD0000FD
:1028A000020400008F8F000080C0000080800000C4
:1028B0004907490F282251430818FF300130C06EE4
:1028C0007047F8B5CD094907490F0F4628246143E1
:1028D000091801260024002D02D04E74103102E0A8
:1028E000FF3151314C700F700A61CB70022B00D157
:1028F0000C710522D20185182A7C012A06D02E747B
:10290000006802F04FFA20462C74F8BD0220F8BD92
:1029100010B54C07640F282161430918FF3151316C
:102920008B614A610022CA614A700C70006802F033
:1029300061FC002010BD70B54B0702795B0F93421C
:1029400001D9012070BDCD0900240122002D05D040
:102950002821594309184A74103105E02825694394
:102960000918FF3151314C708A700B700523DB015F
:10297000C5182B7C012B06D02A74006802F01EFCBF
:102980002C74002070BD022070BD70B54C07640F20
:102990002821614309188B624A62012234256A5456
:1029A0000B630023CB624A740C740068103102F090
:1029B00021FC002070BD000070B50446006802F0E4
:1029C000AFFE010403D5204600F09CFF70BD410519
:1029D0000DD5206840308188464A114081802046CC
:1029E00000F0FCF80021204600F02AF970BD4104F7
:1029F00004D52068403081883F4A78E0810404D5BE
:102A00002068403081883D4A71E00B218901C5046E
:102A1000042208236118002D1ADA20684030058846
:102A2000954305802068403002889A430280087AE6
:102A3000012805D10020087201462046FFF798FCC6
:102A4000204600F0DFF82068403081882C4A4EE0B4
:102A5000050510D5206840300188194301802068A1
:102A600040308188274B19408180206840300188A0
:102A7000114301800AE0050627D52068403085888B
:102A80008026B5438580087A002803D0204600F0D0
:102A90000BF970BD2068403005881543058020681B
:102AA000403002881A4302800120087220684030BA
:102AB000808A3C21800808400521C9016118C8644A
:102AC00001212046FFF754FC70BD810509D520681F
:102AD000403081880C4A11408180204600F0A8F8DF
:102AE00070BDC005FCD5206840308188074A114080
:102AF000818070BDFFFB0000FFBF0000FFDF000012
:102B0000FFEF0000FFF70000FFFD0000FFFE0000E8
:102B1000F8B5040007D00520C0012618707C0025F8
:102B2000002802D005E00120F8BD3574204600F0F1
:102B300039F803207074206802F0F8FA00200127A9
:102B40000AE02821414309194F740874CD740D62BD
:102B50004D62401CC0B28D6221798142F1D80022C1
:102B60000FE02820504300190146FF3141314D74D8
:102B70000A74FF300130CD7405664566521CD2B22E
:102B8000856620799042ECD807CC0C3C02F0C4FA60
:102B900025737774A07A012802D12046FFF7D2FB73
:102BA0000020F8BD08B500680A49884210D10A48DB
:102BB000C2690121C9050A43C261C06900220840F7
:102BC000009011461F20FFF7B9FB1F20FFF7AAFB5B
:102BD00008BD0000005C00400010024070B50446D3
:102BE00040790125022801D0FFF748F80520C001EF
:102BF00024182946A06D01F093FEA06D01F051FE4E
:102C000070BD000010B50446407A002806D0074881
:102C1000016906229143016101F03EF80520C001DF
:102C20002018806D01F064FE10BD000000ED00E092
:102C3000052110B5C9014018806D01F063FE10BD7B
:102C400010B50522D2018418227C012A08D0012265
:102C500022740173006802F07BFD0020207410BD17
:102C6000022010BD052110B5C90141188A6D5321FC
:102C7000C9004118104601F060FE10BD70B5044651
:102C80000520C0012518287C01280AD001202874BD
:102C9000206802F033FD206802F036FA0020287424
:102CA00070BD022070BD000010B504460520C001B3
:102CB0002018806D01F085FE607A002804D003485A
:102CC000016906221143016110BD000000ED00E022
:102CD000F8B504460068434DC00352D5E8690026A4
:102CE000C00007D4E96928040143E961E9690140AA
:102CF000012600913C480168C90510D4016882157D
:102D000011430160FFF7BAFA074604E0FFF7B6FA8D
:102D1000C01B642824D834480068C005F6D5286A4A
:102D200003273F02384020D06168394081421CD0DF
:102D3000286A2A6AB843012109040A432A622A6AD6
:102D40008A432A622862C0070FD0FFF797FA0090E3
:102D500008E0FFF793FA0099411A2448814201D90B
:102D60000320F8BD286A8007F3D5286A6168B84354
:102D700008432862002E04D0E8690121090788432E
:102D8000E8612078C00705D0286BA1688008800022
:102D9000084328632078800706D5286B032109049F
:102DA0008843E168084328632078800605D5286BAE
:102DB000102188432169084328632068800305D5D2
:102DC000286B80218843A169084328632088400537
:102DD00005D5286B4021884361690843286300209A
:102DE000F8BD000000100240007000408813000091
:102DF000F8B50F4606005ED03C4D2868C007C00FEE
:102E0000B84209D228684008400038432860286842
:102E1000C007C00FB8424ED13068354C81070CD581
:102E2000400704D5606807210902084360606068B4
:102E3000F0218843B168084360603078C0072BD028
:102E40007068012810D0022810D0032811D0216802
:102E5000890700292FDA61688908890001436160C8
:102E6000FFF70CFA009010E0216803E02168890167
:102E7000EFE7616B8903ECE7FFF700FA0099411A6D
:102E80001C48814201D90320F8BD60680C2108402C
:102E9000716889008842EFD12868C007C00FB84226
:102EA0000BD9286840084000384328602868C007CC
:102EB000C00FB84201D00120F8BD3078400706D5D8
:102EC0006068072109028843F1680843606000F0E8
:102ED00017F86168084A0906090F515CC84007499C
:102EE00008600320FFF7E8F90020F8BD0020024049
:102EF0000010024088130000585900080C00002000
:102F000070B5154A51680C200B4603401348042B3A
:102F100005D0134D082B03D00C2B00D1284670BDD3
:102F20008B02104C1B0FE45CD26A0E4B1207120F7F
:102F30001033C9039A5C890F022901D0032901D0FB
:102F4000002301E0002328460021FDF797F92146E0
:102F500002F018FC70BD00000010024000127A0060
:102F6000006CDC0238590008FEB5040070D02078EF
:102F7000F94EFA4DC00748D068680007800F012855
:102F80001FD068680007800F022804D16868C0035A
:102F9000800F022815D06168012919D00120800412
:102FA000002901D0052917D02968B1432960296873
:102FB00081432960606800281BD0FFF75FF907464E
:102FC00013E02868800320D560680028CED01CE07C
:102FD000286830432860EDE7296801432960F7E756
:102FE000FFF74CF9C01B642870D828688003F7D518
:102FF0000BE0FFF743F9074604E0FFF73FF9C01B7A
:103000006428F1D828688003F7D4207880073FD55A
:1030100068680007800F14D068680007800F0228D6
:1030200004D16868C003800F01280AD0E068002836
:1030300028681ED0012108432860FFF71FF90746C2
:103040000CE0286880070CD5E068012800D108E072
:1030500080E1FFF713F9C01B0228C5D82868800754
:10306000F7D52868F82188432169C90008432860FA
:103070000EE0400840002860FFF700F9074604E032
:10308000FFF7FCF8C01B0228AED828688007F7D4E9
:103090002078000723D5E0690028686A0FD0012155
:1030A00008436862FFF7EAF8074604E0FFF7E6F82E
:1030B000C01B022898D8686A8007F7D50FE040083F
:1030C00040006862FFF7DAF8074605E0C3E0FFF763
:1030D000D5F8C01B022887D8686A8007F7D4207803
:1030E00004274007002861DA00200190E869C00049
:1030F00008D4E969B8060143E961E96901400120A2
:103100000091019096480168C90511D401688215A3
:1031100011430160FFF7B2F8009005E0FFF7AEF849
:103120000099401A642898D88D480068C005F5D5E4
:10313000A06801280AD0002801D0052811D0286AEB
:10314000400840002862286AB84302E0286A01214A
:1031500008432862A068002812D0FFF78FF800907B
:103160000AE0286A38432862F0E7FFF787F80099F9
:10317000411A7C4881426ED8286A8007F5D50DE057
:10318000FFF77CF8009006E0FFF778F80099411A05
:10319000744881425FD8286A8007F5D401980028D6
:1031A00004D0E969012000078143E9612078C00665
:1031B00035D5606901280CD0401D686B24D0384398
:1031C0006863686B400840006863FFF757F807467C
:1031D00022E0686B38436863686B012108436863C9
:1031E000FFF74CF8074604E0FFF748F8C01B022839
:1031F00031D8686B8007F7D5686BF8218843A169DF
:10320000C900084368630AE0B8436863F4E7FFF75E
:1032100035F8C01B02281ED8686B8007F7D42078C9
:10322000800637D568680007800F032814D06868C7
:103230000007800F022804D16868C003800F0328AC
:103240000AD0206A0028686B16D030436863FFF705
:1032500015F806460CE062E0686B80031AD5206A18
:10326000012877D116E0FFF709F8801B022856D80D
:10327000686B8003F7D50DE0B0436863FEF7FEFF8F
:10328000064604E0FEF7FAFF801B022847D8686B69
:103290008003F7D4606A002866D069680907890F3F
:1032A000022942D0012636060228286805D0B043FC
:1032B0002860FEF7E3FF044633E0B0432860FEF7E2
:1032C000DDFF074604E0FEF7D9FFC01B022826D821
:1032D00028688001F7D4E86A216B000900010843DF
:1032E000E862A16AE06A084369687B22D2039143DD
:1032F00008436860286830432860FEF7BFFF044633
:1033000004E0FEF7BBFF001B022808D828688001F4
:10331000F7D529E0FEF7B2FF001B022801D90320F0
:10332000FEBD28688001F5D41EE00128F8D0686849
:10333000E96A0322D203A36A02409A420AD109072A
:10334000226B090F914205D10F2189040840E16ADF
:10335000884209D00120FEBD00000100001002409B
:1033600000700040881300000020F4E7094910B500
:10337000401E884201D9012010BD074C6061032125
:10338000081F02F03BFA0020A06107202061002006
:1033900010BD0000FFFFFF0000E000E0F0B50246B6
:1033A0002032137F012B21D001251577022353777B
:1033B00006687468B3687027BC430F68274377605A
:1033C00000680B4CA04208D0AC07A04205D0094CC5
:1033D000A04202D0084CA04204D180244968A343F3
:1033E00019438160557700201077F0BD0220F0BDB1
:1033F000002C0140000400400040014070B5040072
:1034000005D025462035687F002802D006E001203F
:1034100070BD00202877204600F014F8022068775D
:10342000211D206800F078FC01204034A071A877AD
:10343000E87720706070A070E0702071607168772C
:10344000002070BD08B5006801218907884207D1B6
:103450000448C16901221143C161C0691040009054
:1034600008BD000000100240F8B5054604462035AE
:10347000287F0026012817D00120287702206877AE
:10348000226890687727FF23B8431B029843906017
:103490000868502838D00EDC20284FD006DC0028E1
:1034A0004CD010281ED149E00220F8BD302845D06C
:1034B000402817D13AE060282ED0702819D0012278
:1034C0001203801A0FD090420CD1CB684A688968E9
:1034D000206800F073FC2068816801229203114388
:1034E000816000E0012601206877002028773046BF
:1034F000F8BDCB684A688968206800F05FFC2168E5
:10350000886838438860EEE7CA684968206800F038
:1035100065FD5021206806E0CA684968206800F00F
:103520006EFD6021206800F054FCDCE7CA68496841
:10353000206800F053FD40212068F4E7226801462E
:103540001046F0E730B587B0044614216846FCF712
:1035500051FF012120688907884223D1124842691E
:1035600009130A43426142690A40059242694910BF
:103570000A43426140690224084005900B48002537
:10358000694631C169460A4803950494FEF79CFDDB
:10359000A003694631C109206946C0060395049419
:1035A000FEF792FD07B030BD00100240080C00008D
:1035B00000040048F8B5064604462036307F002750
:1035C0000D4601280ED001203077002A0CD0042AA5
:1035D0001BD0082A2FD00C2A3ED00127002030779C
:1035E0003846F8BD0220F8BD206800F0FBFB2068DB
:1035F00081690822114381612068826904218A431C
:103600008261206881692A6912E0206800F02EFC3E
:10361000206882690121C9020A43826120688169A8
:103620000122920291438161206881692A69120214
:1036300011438161D2E7206800F058FC2068C1691D
:1036400008221143C1612068C26904218A43C26112
:103650002068C1692A6912E0206800F089FC2068AE
:10366000C1690122D2021143C1612068C2690121EE
:1036700089028A43C2612068C1692A691202114322
:10368000C161ABE770B5040005D025462035687FE1
:10369000002802D006E0012070BD002028772046D7
:1036A00000F014F802206877211D206800F034FB38
:1036B00001204034A071A877E87720706070A07076
:1036C000E070207160716877002070BD7047FEE780
:1036D00070B500231D460EE0040F0A2C02D25E00D6
:1036E000303401E05E0037348C555C006418000112
:1036F0005B1C6570DBB29342EED370BD3EB500211A
:103700001C48009101910291416081600124184A96
:1037100004610260C16004224261017641768176D3
:10372000C1768022C261D20002620246203211714B
:103730008462FEF73BFB002801D0FEF79FFA0120D0
:103740000003019000040290009469460948FEF7C6
:1037500097FA002801D0FEF791FA032000906946FD
:103760000448FEF78DFA002801D0FEF787FA3EBD27
:10377000002401408401002008B508484169012265
:103780001143416140691040002200901146092018
:10379000FEF7D4FD0920FEF7C5FD08BD001002406C
:1037A00008B50C484269012189050A434261426912
:1037B0000A400092426949110A43426142690A4043
:1037C0000092426949000A43426140690840009002
:1037D00008BD00000010024010B58EB00024079410
:1037E000089409940A940B941C2168460C94FCF7E5
:1037F00001FE01212C48890712C004608460611E0B
:10380000046141600838FFF7F9FD002801D0FEF798
:1038100035FA01200003079007A92348FFF724FE8B
:10382000002801D0FEF72AFA1F48FFF72BFF0028D7
:1038300001D0FEF723FA20200BA911C11A4808393C
:10384000FFF7ACFD002801D0FEF718FA70200090B9
:10385000019402940022694604941348FFF7AAFEDB
:10386000002801D0FEF70AFA042269460E48FFF745
:10387000A1FE002801D0FEF701FA082269460A4895
:10388000FFF798FE002801D0FEF7F8F90C226946F0
:103890000548FFF78FFE002801D0FEF7EFF9024838
:1038A000FFF750FE0EB010BD0802002010B5002238
:1038B0000F49104800F0B5FE002801D0FEF7DEF9F0
:1038C0000D490C4801F0A4F8002801D0FEF7D6F904
:1038D0000A49084800F0A4FC002801D0FEF7CEF900
:1038E000044801F0F1F8002801D0FEF7C7F910BD37
:1038F00010000020500200204C0100206000002039
:10390000FEE70000FEB50446ACE18A8817073F0FCA
:1039100031D0BE00815B019109047CD5815BD64A20
:103920001140802211438153282078430519FF3527
:103930005135287B00286FD0E87802286DD0287890
:1039400022688100505ACD4B1840CD4B184350523D
:10395000297820688A00825A52047DD55022125A52
:10396000CB00C84912185918515A8905890D009180
:1039700073D02A89DBE0D2062CD40188BF4A803A72
:1039800011400122D20311430180206825461035E1
:1039900001464030028A207C5218C100B9480818FC
:1039A000105A8005800DE062616A0818606200218B
:1039B0002046FEF7FBFC207B0028A5D0A869002844
:1039C000A2D1207B802108432168403188810020DA
:1039D000207347E12546FF3502885135130520D570
:1039E000098A09182878C200A648001D1018085A2C
:1039F000532183059B0DEB61C900EA88611820689B
:103A000001F091FE216808889B4A104080221043F3
:103A10000880204602E0A6E065E074E0FFF722F9A6
:103A200020E11104D5D50188934A11408022114329
:103A30000180206801464030028A2878914E511852
:103A4000C000361D8019085A83059B0DEB6111D00B
:103A5000696900290ED001E05CE05AE0EA8820683C
:103A600001F061FEE969686940186861002120463B
:103A7000FEF7A8FC206801880A05AAD48904890FEA
:103A80000329A6D05021095A0818801901888905F0
:103A9000890D01802969002908D03E290AD84A08E1
:103AA000C90700D0521C018892020CE00188012253
:103AB000D20308E04A09C90600D1521E01889202C9
:103AC0000123DB031A4311430180216808886E4AF1
:103AD000104001221203504052005040684A403AC0
:103AE00010430880BEE020685021095A0A1829783E
:103AF000CB006449091D5918515A8905890D009157
:103B000019D0EA8813E029462046019AFEF7B4FC52
:103B1000009010E05022CB00125A5A491218091D89
:103B20005918515A8905890D009104D06A8969692B
:103B3000009B01F0F8FDE86900994018E8616969A7
:103B4000009808186861A869002803D029690098BE
:103B5000814204D929782046FEF734FC03E0294647
:103B6000206801F047FB019800067BD528202368D8
:103B70004743985B3919414A803A10400122D203E9
:103B800010439853C87C103101281DD00198C005FE
:103B900064D420685022125A13180878394AC00099
:103BA0008018185A8A698005800D82424FD9121AEE
:103BB0008A614ED04A6912184A61CA691018C861F0
:103BC000206801F017FB4DE0002088610B7B002B83
:103BD0003FD0019B5B0617D54B78002B02D0012B01
:103BE00009D036E0206850231B5A18180B78DB00E8
:103BF0001B18244817E0226850239B5A9A180B7808
:103C0000DB009B181F4A1FE04D782368002D02D06F
:103C1000012D11D01DE05020C05AC0180B78DB00D8
:103C20001B181848001D181803889B059B0D03805E
:103C30000388134303800CE05022D25AD2180B7829
:103C4000DB009B180F4A121D9A18108001E000201B
:103C5000886109782046FEF7A9FB03E02046019A17
:103C6000FEF77AFC2068014640318A88120400D5AC
:103C70004BE60020FEBD00008F0F00008F8F00007C
:103C8000C0800000020400008FBF00007047704732
:103C900010B5FEF7F9FA10BD30B599B03421684679
:103CA000FCF7A8FB00240D940E940F941C2111A87E
:103CB0001094FCF79FFB31200090012001900890A8
:103CC00005901020069000030A90000102250B9039
:103CD00009950C946846FFF747F9002801D072B6A1
:103CE000FEE707200D900F9401210E9510940DA86A
:103CF000FFF77EF8002801D072B6FEE701204004ED
:103D00001190179411A8FEF7E3FF002801D072B6B6
:103D1000FEE719B030BD7047F0B50268214B0124B1
:103D2000A407214D984203D0A04201D0A84203D15C
:103D30007026B2434E6832431C4E1D4F98420DD040
:103D4000A0420BD0A84209D01A4CA04206D0B042E3
:103D500004D0B84202D0184CA04204D1032424025B
:103D6000A243CC6822438024A2434C6922430260D0
:103D70008A68C2620A688262984206D0B04204D061
:103D8000B84202D00C4A904201D109690163012175
:103D900041610169C90703D001694908490001610E
:103DA000F0BD0000002C0140000400400040014034
:103DB00000440140002000400048014030B58468C4
:103DC000FF252D021B021343AC430B4323438360A7
:103DD00030BD826870239A430A4307210A438260F8
:103DE00070470000F0B5056A026A5208520002628C
:103DF000436882697024A24392080C6892001443BD
:103E0000022295438A68164E2A43144DA84207D0D1
:103E1000B04205D0134FB84202D0134FB84206D17A
:103E20000827BA43CF681743042297433A46A8426B
:103E300007D0B04205D00B4DA84202D00A4DA8428F
:103E400006D103252D02AB434D691D438B692B43DE
:103E500043608461496841630262F0BD002C014007
:103E600000400140004401400048014070B5046A30
:103E7000026A10239A4302624368826973252D0205
:103E8000AA430D682D021543202294438A6812012B
:103E90002243124CA04208D11446CA688026B4437B
:103EA000120122434024A24308E00D4CA04205D059
:103EB0000C4CA04202D00C4CA04208D10324A40216
:103EC000A3434C69A4001C438B699B0023434360BC
:103ED000856149688163026270BD0000002C014069
:103EE00000400140004401400048014070B5046AB0
:103EF000026AFF2301339A4302624368C269702554
:103F0000AA4392080D68920015430122520294437D
:103F10008A6812022243124CA04208D11446CA6891
:103F2000C614B443120222430415A24308E00D4C08
:103F3000A04205D00C4CA04202D00C4CA04208D1AB
:103F400003242403A3434C6924011C438B691B01F4
:103F500023434360C5614968C163026270BD0000CC
:103F6000002C014000400140004401400048014055
:103F700030B5046A026A01231B039A430262436854
:103F8000C26973252D02AA430D682D021543012233
:103F9000520394438A68120322430C4CA04208D077
:103FA0000B4CA04205D00B4CA04202D00A4CA042C0
:103FB00005D10124A403A3434C69A4012343436016
:103FC000C56149680164026230BD0000002C0140F7
:103FD00000400140004401400048014030B5036A00
:103FE000046A6408640004628469F025AC43120129
:103FF00022430A24A3430B438261036230BD30B5E0
:10400000046A036A1025AB43036283690F252D03FD
:104010001203AB431A43A0239C430901214382614D
:10402000016230BDF8B506460520C0013018846B2A
:10403000006C0D46002C1ED0142169438F19FA69BB
:10404000002A08D0282169430818016A1046FCF7A5
:10405000D3F9002906D0FF340020FF340234606118
:104060000020F8BD002003460246F861294630468C
:1040700000F0B0FCF4E70220F8BD70B50522D201D3
:104080008518AC6B00F09CFBE11DFF31FA31C86074
:10409000A86B002808D04868E96BCA6883218900AA
:1040A00061189047002070BD022070BD70B50446B5
:1040B0000026812100F0D6FA002501212046E56284
:1040C00000F0D0FAFF206D3005518221204600F02B
:1040D000C9FA0520C00125642418A06B002806D069
:1040E000E06B40688047A06B00F057FEA563304648
:1040F00070BD052110B5C9014018C36B816B002B41
:104100000AD0CC1DFF34FA342078FF2804D09B68F5
:1041100062789847FF202070002010BD0A2101809E
:104120000048704774000020432101800048704718
:10413000C400002043210180004870478000002017
:10414000432101800048704708010020F8B505466A
:10415000007CEF1D0026F9370124002833D04023CE
:1041600002228121284600F085FB4023EC620222D6
:104170000121284600F07EFB0823032282212846E5
:10418000FC6600F077FB872080002C6400F006FEC0
:104190000521C9016918886300281FD00446C86B2F
:1041A00000688047FF340020FF3402346061A06162
:1041B000287C6268002813D040230121284600F0A3
:1041C00066FB3046F8BD01235B02022281212846AE
:1041D00000F050FB01235B02EC62C8E70126F0E728
:1041E00001235B02E9E7052110B5C9014118896B7C
:1041F000002913D0027C002A09D0FF31FF3102319F
:104200004A684023012100F042FB002010BDFF312D
:10421000FF31023101235B024A68F3E7022010BD3F
:1042200002460220002904D00520C0011018C163F5
:10423000002070470522D2018018806BFF30FF30CC
:1042400002304160002070470523DB01C018806BFD
:10425000FF30FF3002300261816000207047FEB500
:10426000074605200C46C001391800206A468E6BAF
:1042700010709080054620786022024022D0202ACB
:104280003AD1E288002A16D0000607D5C96B6078BB
:104290008B6831469847E288314626E0F01DFF30B2
:1042A0006178FA300170A1794170E2883146384670
:1042B00000F069F825E0C96B60788B680022214620
:1042C00098471EE06078002804D00A2808D00B2800
:1042D00012D10EE0087F03280ED1022201A904E0CA
:1042E000087F032808D101226946384600F068F8A3
:1042F00007E0087F032804D02146384600F039F84B
:1043000002252846FEBD052110B5C9014118896B5B
:10431000002913D0FF31FF3102314A69002A01D050
:10432000012010BD01224A610A6902630A8A93B220
:104330008A68812100F04EFB002010BD022010BDD4
:10434000052210B5D2018218526B526890470020A6
:1043500010BD134610B50A46002100F098FA00205F
:1043600010BD134610B50A46002100F033FB0020B3
:1043700010BD10B50446802100F00FFB002120463F
:1043800000F00BFB10BD10B50524E4010323041954
:104390006361C31DF933DA651A6613460A460021C4
:1043A00000F075FA002010BD052110B5CA01821871
:1043B000002351611A46194600F069FA002010BD29
:1043C00010B50524E401022304196361C261134698
:1043D00002620A46002100F0FDFA002010BD05220D
:1043E00010B5D20104218218002351611A461946E2
:1043F00000F0F0FA002010BD10B50A46024903A0F3
:1044000000F0E0F8004810BD1405002043444320AC
:10441000436F6E666967000012200880004870478D
:104420003000002010B50A46024903A000F0CAF887
:10443000004810BD1405002043444320496E7465B4
:1044400072666163650000000420088000487047C0
:104450002C00002010B50A46024903A000F0B2F873
:10446000004810BD1405002053544D6963726F65F8
:104470006C656374726F6E696373000010B50A46F1
:10448000024903A000F09EF8004810BD140500206A
:1044900053544D3332205669727475616C20436FEA
:1044A0006D506F727400000010B51A200880094822
:1044B000046BC16A406B081809D008220649FFF74F
:1044C00007F90549042210312046FFF701F9024897
:1044D000801E10BD80F7FF1F46000020F8B50D4676
:1044E0000446002069460880698805200A0AC00140
:1044F0002018130001F05EF90844050B18444438F5
:104500004144006B237C02686946184617E0217C11
:104510000226406B002905D0C16A684688470146DB
:10452000467039E0816AF8E7C9B20B0001F042F940
:104530000604091013161928006B426803E090471F
:1045400019E0006B8268002A1AD0207C6946F6E7E1
:10455000006BC268F7E7006B0269F4E7006B426921
:10456000F1E7006B8269EEE7217C002908D1406BFE
:10457000416B6846884701460EE0217C002904D043
:1045800029462046FFF7F5FEF8BD406B016B6846F3
:1045900088470722014642706846008800280AD0F2
:1045A000EA88002A0AD0824200D902466846028080
:1045B0002046FFF705FFE8880028E5D12046FFF7F1
:1045C0000EFFF8BD70B5002300281DD0044600255D
:1045D00002E06D1CEDB2641C2678002EF9D16C004F
:1045E000A41C14801278CA5403225B1CCA540024F1
:1045F0005B1C06E0CA545B1CDAB28C54521CD3B26A
:10460000401C0278002AF5D170BD01460020002927
:1046100004D0012901D0022901D0022070470120D5
:10462000704710B5002811D00523DB01C3185C6B5F
:10463000002C01D000245C63002900D01963012103
:104640001977027000F0C4F8002010BD022010BDE0
:10465000052210B5D2018018006CFDF7E3FEFFF7CC
:10466000D4FF10BD052210B5D2018018006CFDF7F3
:10467000B7FEFFF7CAFF10BDF8B506460520C0011A
:1046800034181346002908D0606B4269002A02D012
:10469000207F03284FD00220F8BD354660691435CD
:1046A000022804D0042839D0002837D03AE02F69F6
:1046B000E868B84207D9C01B82B2E86019463046A4
:1046C000FFF74FFE12E0AD6839462846FBF794FE2F
:1046D000002912D1BD4210D3A06985420DD200221B
:1046E00011463046FFF73DFE0020A06100231A4628
:1046F0001946304600F0CBF814E0606BC168002921
:1047000004D0207F032801D13046884780213046DD
:1047100000F043F93046FFF747FE03E080213046C2
:1047200000F03BF91520400130180178012904D12F
:104730000021017001E0304690470020F8BD70B5BF
:1047400005460520C0012B181646002908D0586BD5
:104750008269002A02D0187F03282DD0022070BD64
:104760002C46FF3458695534032802D005281CD044
:1047700024E0E168206981420AD90B1AE360834290
:1047800000D303469AB231462846FFF7E2FD15E012
:10479000586B0169002904D0187F032801D12846ED
:1047A00088472846FFF71BFE08E0002001465861B5
:1047B000284600F0F2F801E028469047002070BD3E
:1047C000052210B5D2018018006CFEF771F810BDFB
:1047D00010B51D4905228865D20184181B491C4863
:1047E000216408600820087102204871C871002007
:1047F00048728872C8720846FEF78AF9002801D00C
:10480000FDF73CFA002218231146206CFDF7B1FD9C
:10481000582300228021206CFDF7ABFDC02300222D
:104820008121206CFDF7A5FDFF231133002201211A
:10483000206CFDF79EFDFF23013300228221206CB6
:10484000FDF797FD002010BDB413002034110020A7
:10485000005C0040CA094906490E282359431B0140
:10486000C018006C0818002A01D0807C7047FF3007
:104870004130FAE710B51C460523DB01C01813468A
:10488000006C2246FEF71DF8FFF7BFFE10BD10B505
:104890000524E4010019006CFEF73AF8FFF7B5FEB5
:1048A00010BD70B50022044640231146FFF7E2FF19
:1048B000E01D4026F9300125466685653346002215
:1048C00080212046FFF7D6FF0520C0016662201830
:1048D000A56105770021416161604162816B00291A
:1048E00004D0406B0021426820469047002070BDF4
:1048F0000521C9014018017F042901D1417F0177B9
:1049000000207047052110B5C90141180A7F032A0C
:1049100004D1496BC969002900D08847002010BD27
:10492000017400207047052210B5D2018018006C78
:10493000FEF786F9FFF769FE10BD70B505465520F4
:10494000C0002818044600F04FF80520C0010121DE
:1049500028184161C18D8161152040012818007A15
:10496000C106C90E0AD001290DD0022910D0C109F3
:10497000C901284600F011F8002070BD21462846E4
:1049800000F0A7F8F8E72146284600F0DCF9F3E745
:104990002146284600F022F9EEE7052210B5D201A3
:1049A0008018006CFDF7C7FFFFF72FFE10BD052133
:1049B00010B5C9014018006CFEF760F9FFF725FE3D
:1049C00010BD0521C9014018017F417704210177FD
:1049D0000020704710B50524E4010019006CFDF7B4
:1049E000D4FFFFF712FE10BD0A7802704A784270B9
:1049F000CB788A781B02D21842804B790A791B0245
:104A0000D21882808A79C97909025118C180704709
:104A100002460020002904D00523DB01D21851638F
:104A2000704702207047052210B5D2018218526BE0
:104A30000224002A04D012689047002800D10024E4
:104A4000204610BD70B50E4689781E4C0546217073
:104A5000012904D931462846FFF78BFC70BD05209B
:104A6000C0012818027F022A0AD0032A0ED031463C
:104A70002846FFF77EFC21782846FFF761FC70BDD1
:104A8000002913D00322696002770AE0002911D0BF
:104A9000686888420AD0C1B22846FFF751FC2178E5
:104AA00069602846FFF7BFFF0228D3D02846FFF7EA
:104AB00096FC70BD0222027728466960FFF740FC31
:104AC000F4E700007000002010B5FFF770FF002031
:104AD00010BDF8B5002200920A7860231A40052321
:104AE000DB01C518002A07D0202A01D0402A6AD14C
:104AF0006A6B9268904768E04C7800220126230098
:104B000000F058FE0A3F5A6155610906612C29617F
:104B1000FFF7E4FC59E004468888002819D1C888CA
:104B2000002816D14888802813D24706287F7F0E98
:104B300003280ED0AF7739462046FFF7F4FE204613
:104B4000FFF74DFC002F02D0022028773DE02E77A2
:104B50003BE0204637E0FFF775FF36E0CB88012BBE
:104B600031D12B7F012B04D0022B02D0032B2AD171
:104B700004E0826001220146083115E00122011D96
:104B800012E02A7F012A03D0022A01D0032A1AD177
:104B9000CA88022A17D1C660696A002901D0032198
:104BA000C160014602220C31FFF70AFC0DE0498882
:104BB00001290AD16E620EE02B7F012B07D0022B58
:104BC00005D0032B03D0FFF7D4FB0098F8BD49882C
:104BD0000129FAD16A62FFF702FCF6E7F8B50A4646
:104BE0001378044660201D4605400520C0010027BB
:104BF00009792018002D09D0202D01D0402D77D122
:104C0000406B11468368204698479AE05B069B0FED
:104C1000012B07D05378002B3BD0012B2BD0032B3B
:104C200066D105E0406B1146836820469847F8BD81
:104C3000007F022802D003287FD10BE000297CD01E
:104C400080297AD02046FFF7A8FE80212046FFF772
:104C5000A4FE76E05088002809D1002907D08029D9
:104C600005D0D088002802D12046FFF796FE2046C6
:104C7000FFF7B5FB65E0007F0228DFD003285CD199
:104C8000508800285DD14806F1D02046FFF7E0FCAF
:104C9000EDE7007F0026022802D003284DD116E060
:104CA000002901D0802948D1C80906D04806400E05
:104CB000142148430119143106E04806400E14211E
:104CC00048430119FF31553102220E6031E0C80915
:104CD0000FD00807000F14235843001980690028DB
:104CE0002BD04806400E142250430519143511E00C
:104CF00023E00807000F142358430019FF30013048
:104D0000806D002819D04806400E14225043051922
:104D1000FF355535002909D0802907D02046FFF7F7
:104D200099FD002802D00120286000E02E600222B8
:104D300029462046FFF744FB03E011462046FFF7D3
:104D400018FB3846F8BD70B505460C46087860215A
:104D5000084003D0202801D0402818D10520C001E8
:104D60002818017F012903D0022901D003290ED17F
:104D7000217901290BD8406B21468268284690474B
:104D8000E188014307D12846FFF729FB03E02146CC
:104D90002846FFF7EEFA002070BD704700487047C4
:104DA000140F0020F0B5002294460A789400035BAB
:104DB000924A1340CA78002A5ED0012A63D0022AA0
:104DC00003D0032A5BD0012294468D4A1343035338
:104DD0000D78AE00845B8B4B1C402C4314438453F2
:104DE000884D0E7B044630354034002E4ED0CE78B0
:104DF000022E0E7872D0B700C65BBE46824F3E4090
:104E000016437746C653268A0F783618FF00BF1917
:104E10000126B602BE190F897F087F003780248AD9
:104E20000E782418F6003619784C34194E89760815
:104E3000760026804C78002C0C7875D0A600845B18
:104E4000640404D5845B724F1C403C4384530C784B
:104E5000A600845B640605D5845B1C40684B403328
:104E60001C438453CB78012B0B787DD09C00035BD3
:104E70002B4020256B40B5E00122520201E00322C5
:104E800052021343A1E701229202FAE74E78002E64
:104E900025D0248A0E782418F60036190124A4029D
:104EA0003419CE887608760026800C78A600845BBC
:104EB000640605D5845B1C40514B40331C4384532E
:104EC000CB78012B05D009788B00C15A29402024CA
:104ED0004EE009788B00C15A29408BE056E0258AC4
:104EE0000E782D18F6007619484D7519CE8876087B
:104EF00076002E80248A0D782418ED002C19434D5D
:104F0000AD1C64192588AD05AD0D258001270E69FE
:104F1000FF03002E09D03E2E0BD87508F60700D0EF
:104F20006D1C2688AD020BE037E025883D432580C7
:104F300008E07509F60600D16D1E2688AD023D43D6
:104F40002E4326800C78A500445B640404D5445BA2
:104F50001C402F4B1C434453097800290AD08B0076
:104F6000C15A2B4CF13C00E039E02140012464039C
:104F700061403FE00188264BF13B194001231B03B0
:104F800059405B0059401143018035E0B700C65BD2
:104F9000BE46204F1E403E4333E7A600845B6404B8
:104FA00004D5845B1A4F1C403C4384530C78A60004
:104FB000845B640605D5845B1C40114B40331C4365
:104FC00084530B789C00035B114EF13E3340012665
:104FD00036037340760073401343035379E79C0014
:104FE000035B2B401343035309788B00C15A084CD1
:104FF000F13C21401143C1526046F0BD8F89000051
:10500000808000008F8F00008F8E0000040400005D
:1050100080C0000080810000F0B50A780F7B374B1C
:105020004E78374D374C9200002F22D0002E865AF2
:1050300041D0760403D5865A26402E4386520A78FC
:105040009600825B520605D5825B2C4F224040378A
:105050003A4382530A789600825B22402A43825365
:105060000A789400025B274D30352A401A430253D8
:1050700017E0002E0ED0855A6D0605D5855A2540BD
:105080001E4C40342543855209788A00815A1D4CB4
:1050900030340BE0865A760403D5865A26402E43D8
:1050A000865209788A00815A154CF13C21401943F7
:1050B00081520020F0BD760403D5865A26402E4347
:1050C00086520A789500425B520605D5425B0B4E2C
:1050D00022404036324342530A789500425B2240D8
:1050E000064C4034224342530A789400025B044D3C
:1050F000F13D2A401A430253C6E7000080800000B9
:1051000080C000008F8F00004030018B0122D2034D
:1051100011430183002070470121403001800021AC
:1051200001808180018208467047000040300349B9
:1051300002888A43028000207047000080BF000080
:1051400030B50A7B002A30D14A78194D002A194B14
:105150000A7814D09400025B520605D5025B2A40FF
:10516000144D40352A430253CA78012A1DD00978CC
:105170008A00815A0E4C30342140202412E09400E1
:10518000025B520404D5025B2A400B4D2A430253B2
:1051900009788A00815A084CF13C214001242403FB
:1051A00061406400614019438152002030BD00001D
:1051B0008F8F00008080000080C0000010B54A780A
:1051C0000978094B8900002A425A03D0074C224033
:1051D000102403E0064C22400124240362401A43B9
:1051E0004252002010BD000080800000BF8F0000F0
:1051F0008FBF0000F0B50D464B780746FE4A097B8D
:1052000040370446012B08D000296FD0E8780228E7
:105210006DD001286CD00120F0BDAE6928698642AE
:1052200000D90646002912D0E97802291FD0286A41
:10523000801B286228788100615A4906398A6ED518
:105240000919C0004118ED480818068018E1B3B2EA
:10525000EA882046696900F082FA388A29780019BC
:10526000C9000918E548001F081806800EE1296AE0
:105270008142287874D98100605A1040E04A104376
:105280006052286A801B286228788100615A49068A
:10529000697878D5002902D001292AD030E0398AEE
:1052A000C00009194118D548081801888905890DD9
:1052B0000180002E08D03E2E0CD87108F20700D0D5
:1052C000491C028889020EE001880122D2031143A1
:1052D000018015E07109F20600D1491E0288890299
:1052E0000123DB0319430A43028009E0F9E024E1CA
:1052F000A4E13A8AC00011194118C0480818068074
:105300006A89B3B22046696900F029FA6869801990
:1053100068612969286A884202D9801B02E0D8E0C6
:105320000646002028626878002802D001282BD089
:1053300030E0388A29780019C9000918AF48001FE1
:10534000081801888905890D0180002E09D03E2E9C
:105350000DD87108F20700D0491C028889020FE0BD
:10536000A4E001880122D2031143018012E07109F7
:10537000F20600D1491E028889020123DB0319438A
:105380000A43028006E007E0388A29780019C9003C
:105390000918A1E02A8974E0002902D0012928D047
:1053A0002FE0398AC000091941189448001F0818D5
:1053B00001888905890D0180002E08D03E2E0CD869
:1053C0007108F20700D0491C028889020EE00188AA
:1053D0000122D2031143018013E07109F20600D1CA
:1053E000491E028889020123DB0319430A43028014
:1053F00007E0398AC000091941188048001F0818C1
:1054000006802A89B3B22046696900F0A8F9686964
:10541000801968612969286A884201D9801B01E0E6
:105420000646002028626878002802D0012837D07C
:1054300026E0388A29780019C90009186F48081829
:1054400001888905890D0180002E08D03E2E0CD8D8
:105450007108F20700D0491C028889020EE0018819
:105460000122D203114301800AE07109F20600D142
:10547000491E028889020123DB0319430A43028083
:105480006A89B3B22046696900F069F92878810019
:10549000605A594A3032104010225040202215E103
:1054A000398A08192978C9000918CCE68200A05A5F
:1054B000544B1840544B1843A052388A2A7800198C
:1054C000D20012184D488BB2001F101803802A8991
:1054D000D8E70919C00041184848001F081806807D
:1054E00058E7A9692869814201D9091A01E00846EB
:1054F0000021A961398A2A780919D20052183F4936
:1055000051180A889205920D0A8000287ED03E2804
:1055100007D84208C00700D0521C088892021043E6
:10552000CAE04209C00600D1521E0B889002012237
:10553000D203104303430B80BFE0002B28D1388AED
:1055400029780019C90009182C48001F081801887B
:105550008905890D0180296900290AD03E290CD8C6
:105560004B08C90700D05B1C01889B0219430180CE
:105570000EE001880123DB03F8E74B09C90600D1DF
:105580005B1E068899020123DB0319430E43068044
:105590006878002802D0012847D027E0388A297887
:1055A0000019C90009181548081801888905890DCE
:1055B0000180296900290AD03E290CD84B08C90767
:1055C00000D05B1C01889B02194301800EE001881A
:1055D0000123DB03F8E74B09C90600D15B1E0688EF
:1055E00099020123DB0319430E430680E869002872
:1055F00063D0287881000AE08F8F00000604000045
:10560000808100008F8E00008080000050E0605A92
:10561000430401D5430602D4344B18424DD1605A9D
:105620001040334A1043605247E0398A08192978FC
:10563000C90009182F480818298AC6E7A9692869E6
:10564000814201D9091A01E008460021A961002B15
:1056500027D1398A2A780919D20052182549091FF9
:1056600051180A889205920D0A80002808D03E2819
:105670000CD84208C30700D0521C0B8892020EE0DF
:105680000A880123DB031A430A800AE04209C306A1
:1056900000D1521E0B8892020126F60332431343B7
:1056A0000B806978002900D124E7012915D004E096
:1056B00008880122D20332E7088028788100605AE6
:1056C0000D4A104001221203504052005040084A37
:1056D000403A104360520020F0BD3A8A11192A78EE
:1056E000D200521803495118E6E70000404000007C
:1056F000C0800000060400008FBF00000021403081
:1057000081800249018000207047000080BF0000B6
:1057100010B50248FDF750F910BD0000341100200B
:10572000403080887047801810B5012292025C08D2
:105730008018002C07D002880A70120A4A70801C58
:10574000891C641EF7D1DA0701D00088087010BDEB
:10575000002902D1802140308181002070478018CB
:1057600001225B1C920210B55B088018002B08D048
:105770004A780C78120222430280801C891C5B1E2E
:10578000F6D110BDF8B5040C8BB2264682B25E434A
:105790000D0C1046370C584336048019002179410E
:1057A00016466E43370C36048019794126466E43FF
:1057B0008919F8BD30B47446641E2578641CAB4268
:1057C00000D21D46635D5B00E31830BC1847000043
:1057D0004900CA020243100000D004204A0D01D043
:1057E00001221043044A490D914201D1022108438C
:1057F000012800D105207047FF0700008307FF2222
:10580000DB0E9A408907090E9940002808DB8308BF
:1058100009489B001B18186890430843186070479C
:105820000007000F0838830804489B001B18D8693C
:1058300090430843D861704700E400E000ED00E0C9
:1058400030380A2801D2012070470020704700003C
:10585000FCF722FDFEF720FAFDF7A2FFFDF78CFF13
:10586000FDF74CFFFDF7B8FFFEF720F87D24E400BC
:1058700003A000F011F82046FCF714FCF8E7000044
:105880007768696C652069732072756E6E696E67E2
:105890002E2E2E0D0A0000000FB410B5012103AB0F
:1058A00089020648029AFAF76BFD81B20348FCF7B9
:1058B000B3F910BC08BC04B018470000140B00205A
:1058C00010B500290AD00878002807D00548784488
:1058D000FCF70AF9002801D0002010BD02487844E6
:1058E00010BD0000B6010000AE01000010B5002997
:1058F0000AD00878002807D005487844FCF7F4F867
:10590000002801D0002010BD0248784410BD0000DE
:10591000A60100009E01000003B4024878448446BA
:1059200003BC604763B4FFFF03B402487844844675
:1059300003BC6047CDB6FFFF020304050607080954
:105940000A0B0C0D0E0F10100102030405060708C8
:10595000090A0B0C0D0E0F100000000000000000E3
:10596000010203040607080900000000000000000F
:105970003031323334353637383941424344454685
:10598000403058003031323334353637383961627F
:105990006364656640307800040000080000000081
:1059A000000000020001000010303132333435367F
:1059B000373839616263646566787000303132333C
:1059C0003435363738394142434445465850000053
:1059D00002400000000000A00000000005400000A0
:1059E000000000C8000000000C4000000000409CC7
:1059F00000000000194000000020BCBE00000000B4
:105A000034400000BFC91B8E00000004B5400000F8
:105A1000504BCFD06607E2CF010000006C41000080
:105A20003E8251AADFEEA73401000000D9420000F7
:105A3000DCB5A0E23A301F97FFFFFFFFB44500003E
:105A4000FD25A0C8E9A3C14FFFFFFFFFFF3F0000F6
:105A50000000008000000000FF3F00000000008008
:105A600000000000B05B000800000020840100007E
:105A70007E1B0008705C000884010020EC18000008
:105A8000040100081C00000043000000F8FFFFFFB5
:105A90000C0000000E0000000F0000002E000000AF
:105AA0001001000043000000F8FFFFFF00404040ED
:105AB00040404040404041414141414040404040E1
:105AC000404040404040404040404040400502028D
:105AD000020202020202020202020202022020204C
